{
  "contractName": "Mortal",
  "abi": [
    {
      "inputs": [],
      "payable": false,
      "stateMutability": "nonpayable",
      "type": "constructor"
    },
    {
      "constant": false,
      "inputs": [],
      "name": "kill",
      "outputs": [],
      "payable": false,
      "stateMutability": "nonpayable",
      "type": "function"
    }
  ],
  "bytecode": "0x608060405234801561001057600080fd5b50336000806101000a81548173ffffffffffffffffffffffffffffffffffffffff021916908373ffffffffffffffffffffffffffffffffffffffff160217905550610114806100606000396000f300608060405260043610603f576000357c0100000000000000000000000000000000000000000000000000000000900463ffffffff16806341c0e1b5146044575b600080fd5b348015604f57600080fd5b5060566058565b005b6000809054906101000a900473ffffffffffffffffffffffffffffffffffffffff1673ffffffffffffffffffffffffffffffffffffffff163373ffffffffffffffffffffffffffffffffffffffff16141560e6576000809054906101000a900473ffffffffffffffffffffffffffffffffffffffff1673ffffffffffffffffffffffffffffffffffffffff16ff5b5600a165627a7a72305820b331829c2b75e12cdef980df45f41932490661c7cf72b76b6f8c9398baa0969a0029",
  "source": "pragma solidity ^0.4.24;\n\ncontract Mortal {\n  address owner;\n\n  constructor() public {\n    owner = msg.sender;\n  }\n\n  function kill() public { \n    if (msg.sender == owner) selfdestruct(owner);\n  }\n}\n\ncontract Greeter is Mortal {\n  string greeting;\n    \n  constructor(string _greeting) public {\n    greeting = _greeting;\n  }\n\n  function greet() public view returns (string) {\n    return greeting;\n  }\n}",
  "sourcePath": "/home/clint/Projects/Eth/truff/contracts/Greeter.sol",
  "compiler": {
    "name": "solc",
    "version": "0.4.24+commit.e67f0147.Emscripten.clang"
  },
  "schemaVersion": "2.0.1",
  "updatedAt": "2018-10-30T07:51:56.644Z"
}